{
  "contractName": "TodoList",
  "abi": [
    {
      "constant": false,
      "inputs": [
        {
          "name": "listName",
          "type": "string"
        }
      ],
      "name": "createList",
      "outputs": [],
      "payable": false,
      "stateMutability": "nonpayable",
      "type": "function"
    },
    {
      "constant": false,
      "inputs": [
        {
          "name": "listName",
          "type": "string"
        },
        {
          "components": [
            {
              "name": "title",
              "type": "string"
            },
            {
              "name": "done",
              "type": "bool"
            }
          ],
          "name": "newTodo",
          "type": "tuple"
        }
      ],
      "name": "createTodo",
      "outputs": [],
      "payable": false,
      "stateMutability": "nonpayable",
      "type": "function"
    },
    {
      "constant": false,
      "inputs": [
        {
          "name": "listName",
          "type": "string"
        },
        {
          "name": "index",
          "type": "uint256"
        }
      ],
      "name": "completeTodo",
      "outputs": [],
      "payable": false,
      "stateMutability": "nonpayable",
      "type": "function"
    },
    {
      "constant": true,
      "inputs": [],
      "name": "getAllLists",
      "outputs": [
        {
          "name": "_allLists",
          "type": "string[]"
        }
      ],
      "payable": false,
      "stateMutability": "view",
      "type": "function"
    },
    {
      "constant": true,
      "inputs": [
        {
          "name": "listName",
          "type": "string"
        }
      ],
      "name": "getList",
      "outputs": [
        {
          "components": [
            {
              "name": "title",
              "type": "string"
            },
            {
              "name": "done",
              "type": "bool"
            }
          ],
          "name": "_todoList",
          "type": "tuple[]"
        }
      ],
      "payable": false,
      "stateMutability": "view",
      "type": "function"
    },
    {
      "constant": true,
      "inputs": [
        {
          "name": "listName",
          "type": "string"
        },
        {
          "name": "index",
          "type": "uint256"
        }
      ],
      "name": "getTodo",
      "outputs": [
        {
          "components": [
            {
              "name": "title",
              "type": "string"
            },
            {
              "name": "done",
              "type": "bool"
            }
          ],
          "name": "_todo",
          "type": "tuple"
        }
      ],
      "payable": false,
      "stateMutability": "view",
      "type": "function"
    }
  ],
  "bytecode": "0x608060405234801561001057600080fd5b5061132d806100206000396000f300608060405260043610610078576000357c0100000000000000000000000000000000000000000000000000000000900463ffffffff168063487daf021461007d57806369ee1a5a146100ba578063b0c8e121146100e3578063b8dcc68f14610120578063fc619fc714610149578063fd46849514610174575b600080fd5b34801561008957600080fd5b506100a4600480360361009f9190810190610df4565b61019d565b6040516100b19190611120565b60405180910390f35b3480156100c657600080fd5b506100e160048036036100dc9190810190610ea1565b6103e6565b005b3480156100ef57600080fd5b5061010a60048036036101059190810190610ea1565b61054e565b6040516101179190611182565b60405180910390f35b34801561012c57600080fd5b5061014760048036036101429190810190610df4565b61076e565b005b34801561015557600080fd5b5061015e6108f5565b60405161016b91906110fe565b60405180910390f35b34801561018057600080fd5b5061019b60048036036101969190810190610e35565b6109de565b005b6060816000816040518082805190602001908083835b6020831015156101d857805182526020820191506020810190506020830392506101b3565b6001836020036101000a038019825116818451168082178552505050505050905001915050908152602001604051809103902060010160009054906101000a900460ff16151561025d576040517f08c379a000000000000000000000000000000000000000000000000000000000815260040161025490611162565b60405180910390fd5b6000836040518082805190602001908083835b6020831015156102955780518252602082019150602081019050602083039250610270565b6001836020036101000a0380198251168184511680821785525050505050509050019150509081526020016040518091039020600001805480602002602001604051908101604052809291908181526020016000905b828210156103da5783829060005260206000209060020201604080519081016040529081600082018054600181600116156101000203166002900480601f0160208091040260200160405190810160405280929190818152602001828054600181600116156101000203166002900480156103a75780601f1061037c576101008083540402835291602001916103a7565b820191906000526020600020905b81548152906001019060200180831161038a57829003601f168201915b505050505081526020016001820160009054906101000a900460ff161515151581525050815260200190600101906102eb565b50505050915050919050565b816000816040518082805190602001908083835b60208310151561041f57805182526020820191506020810190506020830392506103fa565b6001836020036101000a038019825116818451168082178552505050505050905001915050908152602001604051809103902060010160009054906101000a900460ff1615156104a4576040517f08c379a000000000000000000000000000000000000000000000000000000000815260040161049b90611162565b60405180910390fd5b60016000846040518082805190602001908083835b6020831015156104de57805182526020820191506020810190506020830392506104b9565b6001836020036101000a03801982511681845116808217855250505050505090500191505090815260200160405180910390206000018381548110151561052157fe5b906000526020600020906002020160010160006101000a81548160ff021916908315150217905550505050565b610556610b7b565b826000816040518082805190602001908083835b60208310151561058f578051825260208201915060208101905060208303925061056a565b6001836020036101000a038019825116818451168082178552505050505050905001915050908152602001604051809103902060010160009054906101000a900460ff161515610614576040517f08c379a000000000000000000000000000000000000000000000000000000000815260040161060b90611162565b60405180910390fd5b6000846040518082805190602001908083835b60208310151561064c5780518252602082019150602081019050602083039250610627565b6001836020036101000a03801982511681845116808217855250505050505090500191505090815260200160405180910390206000018381548110151561068f57fe5b9060005260206000209060020201604080519081016040529081600082018054600181600116156101000203166002900480601f0160208091040260200160405190810160405280929190818152602001828054600181600116156101000203166002900480156107415780601f1061071657610100808354040283529160200191610741565b820191906000526020600020905b81548152906001019060200180831161072457829003601f168201915b505050505081526020016001820160009054906101000a900460ff16151515158152505091505092915050565b6000816040518082805190602001908083835b6020831015156107a65780518252602082019150602081019050602083039250610781565b6001836020036101000a038019825116818451168082178552505050505050905001915050908152602001604051809103902060010160009054906101000a900460ff1615151561082c576040517f08c379a000000000000000000000000000000000000000000000000000000000815260040161082390611142565b60405180910390fd5b6001819080600181540180825580915050906001820390600052602060002001600090919290919091509080519060200190610869929190610b97565b505060016000826040518082805190602001908083835b6020831015156108a55780518252602082019150602081019050602083039250610880565b6001836020036101000a038019825116818451168082178552505050505050905001915050908152602001604051809103902060010160006101000a81548160ff02191690831515021790555050565b60606001805480602002602001604051908101604052809291908181526020016000905b828210156109d5578382906000526020600020018054600181600116156101000203166002900480601f0160208091040260200160405190810160405280929190818152602001828054600181600116156101000203166002900480156109c15780601f10610996576101008083540402835291602001916109c1565b820191906000526020600020905b8154815290600101906020018083116109a457829003601f168201915b505050505081526020019060010190610919565b50505050905090565b816000816040518082805190602001908083835b602083101515610a1757805182526020820191506020810190506020830392506109f2565b6001836020036101000a038019825116818451168082178552505050505050905001915050908152602001604051809103902060010160009054906101000a900460ff161515610a9c576040517f08c379a0000000000000000000000000000000000000000000000000000000008152600401610a9390611162565b60405180910390fd5b6000836040518082805190602001908083835b602083101515610ad45780518252602082019150602081019050602083039250610aaf565b6001836020036101000a038019825116818451168082178552505050505050905001915050908152602001604051809103902060000182908060018154018082558091505090600182039060005260206000209060020201600090919290919091506000820151816000019080519060200190610b52929190610c17565b5060208201518160010160006101000a81548160ff021916908315150217905550505050505050565b6040805190810160405280606081526020016000151581525090565b828054600181600116156101000203166002900490600052602060002090601f016020900481019282601f10610bd857805160ff1916838001178555610c06565b82800160010185558215610c06579182015b82811115610c05578251825591602001919060010190610bea565b5b509050610c139190610c97565b5090565b828054600181600116156101000203166002900490600052602060002090601f016020900481019282601f10610c5857805160ff1916838001178555610c86565b82800160010185558215610c86579182015b82811115610c85578251825591602001919060010190610c6a565b5b509050610c939190610c97565b5090565b610cb991905b80821115610cb5576000816000905550600101610c9d565b5090565b90565b6000610cc8823561128a565b905092915050565b600082601f8301121515610ce357600080fd5b8135610cf6610cf1826111d1565b6111a4565b91508082526020830160208301858383011115610d1257600080fd5b610d1d8382846112a0565b50505092915050565b600082601f8301121515610d3957600080fd5b8135610d4c610d47826111fd565b6111a4565b91508082526020830160208301858383011115610d6857600080fd5b610d738382846112a0565b50505092915050565b600060408284031215610d8e57600080fd5b610d9860406111a4565b9050600082013567ffffffffffffffff811115610db457600080fd5b610dc084828501610cd0565b6000830152506020610dd484828501610cbc565b60208301525092915050565b6000610dec8235611296565b905092915050565b600060208284031215610e0657600080fd5b600082013567ffffffffffffffff811115610e2057600080fd5b610e2c84828501610d26565b91505092915050565b60008060408385031215610e4857600080fd5b600083013567ffffffffffffffff811115610e6257600080fd5b610e6e85828601610d26565b925050602083013567ffffffffffffffff811115610e8b57600080fd5b610e9785828601610d7c565b9150509250929050565b60008060408385031215610eb457600080fd5b600083013567ffffffffffffffff811115610ece57600080fd5b610eda85828601610d26565b9250506020610eeb85828601610de0565b9150509250929050565b6000610f0082611243565b80845260208401935083602082028501610f1985611229565b60005b84811015610f52578383038852610f34838351610fe0565b9250610f3f82611264565b9150602088019750600181019050610f1c565b508196508694505050505092915050565b6000610f6e8261124e565b80845260208401935083602082028501610f8785611236565b60005b84811015610fc0578383038852610fa28383516110c1565b9250610fad82611271565b9150602088019750600181019050610f8a565b508196508694505050505092915050565b610fda8161127e565b82525050565b6000610feb82611259565b808452610fff8160208601602086016112af565b611008816112e2565b602085010191505092915050565b6000601382527f6c69737420616c726561647920657869737473000000000000000000000000006020830152604082019050919050565b6000600e82527f6c697374206e6f7420666f756e640000000000000000000000000000000000006020830152604082019050919050565b600060408301600083015184820360008601526110a18282610fe0565b91505060208301516110b66020860182610fd1565b508091505092915050565b600060408301600083015184820360008601526110de8282610fe0565b91505060208301516110f36020860182610fd1565b508091505092915050565b600060208201905081810360008301526111188184610ef5565b905092915050565b6000602082019050818103600083015261113a8184610f63565b905092915050565b6000602082019050818103600083015261115b81611016565b9050919050565b6000602082019050818103600083015261117b8161104d565b9050919050565b6000602082019050818103600083015261119c8184611084565b905092915050565b6000604051905081810181811067ffffffffffffffff821117156111c757600080fd5b8060405250919050565b600067ffffffffffffffff8211156111e857600080fd5b601f19601f8301169050602081019050919050565b600067ffffffffffffffff82111561121457600080fd5b601f19601f8301169050602081019050919050565b6000602082019050919050565b6000602082019050919050565b600081519050919050565b600081519050919050565b600081519050919050565b6000602082019050919050565b6000602082019050919050565b60008115159050919050565b60008115159050919050565b6000819050919050565b82818337600083830152505050565b60005b838110156112cd5780820151818401526020810190506112b2565b838111156112dc576000848401525b50505050565b6000601f19601f83011690509190505600a265627a7a7230582076dac9356286c415cd3e4a4e873c6c6a2f87a50716b8bf65d77f1c36f979a8c36c6578706572696d656e74616cf50037",
  "source": "pragma solidity ^0.4.23;\npragma experimental ABIEncoderV2;\n\ncontract TodoList {\n    struct Todo {\n        string title;\n        bool done;\n    }\n\n    struct List {\n        Todo[] todos;\n        bool exists;\n    }\n\n    mapping(string=>List) lists;\n    string[] allLists;\n\n    modifier listExists(string listName) {\n        require(lists[listName].exists, \"list not found\");\n        _;\n    }\n\n    function createList(string listName) public {\n        require(!lists[listName].exists, \"list already exists\");\n        allLists.push(listName);\n        lists[listName].exists = true;\n    }\n\n    function createTodo(string listName, Todo newTodo) public listExists(listName) {\n        lists[listName].todos.push(newTodo);\n    }\n\n    function completeTodo(string listName, uint256 index) public listExists(listName) {\n        lists[listName].todos[index].done = true;\n    }\n\n    function getAllLists() public view returns(string[] _allLists) {\n        return allLists;\n    }\n\n    function getList(string listName) public view listExists(listName) returns(Todo[] _todoList) {\n        return lists[listName].todos;\n    }\n\n    function getTodo(string listName, uint256 index) public view listExists(listName) returns(Todo _todo) {\n        return lists[listName].todos[index];\n    }\n}\n",
  "sourcePath": "/Users/ajm13/Desktop/matryx/mocktract-ethers/truffle-example/contracts/TodoList.sol",
  "compiler": {
    "name": "solc",
    "version": "0.4.24+commit.e67f0147.Emscripten.clang"
  },
  "schemaVersion": "2.0.1",
  "updatedAt": "2018-09-05T22:38:54.360Z"
}